:020000040802F0
:1000000000800120951B0208991502089F1502081F
:10001000A5150208AB150208B11502080000000082
:10002000000000000000000000000000B7150208FA
:10003000C515020800000000D3150208E1150208EA
:10004000E51B0208E51B0208E51B0208E51B020888
:10005000E51B0208E51B0208E51B0208E51B020878
:10006000E51B0208E51B0208E51B0208E51B020868
:10007000E51B0208E51B0208E51B0208E51B020858
:10008000E51B0208E51B0208E51B02080000000052
:10009000000000000000000000000000E51B020856
:1000A000E51B0208E51B0208E51B0208E51B020828
:1000B000E51B0208ED15020801160208E51B0208FF
:1000C000E51B0208E51B0208E51B0208E51B020808
:1000D000E51B0208E51B02081516020800000000D7
:1000E000E51B0208E51B0208E51B020800000000F2
:1000F000000000000000000000000000E51B0208F6
:1001000000000000E51B0208E51B0208E51B0208D1
:1001100000000000000000000000000000000000DF
:10012000E51B0208E51B0208E51B0208E51B0208A7
:10013000E51B0208000000000000000000000000B5
:10014000000000000000000000000000E51B0208A5
:10015000E51B0208E51B0208E51B0208E51B020877
:10016000E51B0208E51B020800000000000000007B
:10017000000000000000000000000000000000007F
:1001800000000000E51B0208000000000000000065
:04019000E51B020861
:1001A00010B5054C237833B9044B13B10448AFF3B1
:1001B00000800123237010BDD40100200000000046
:1001C000E09E020808B5034B1BB103490348AFF397
:1001D000008008BD00000000D8010020E09E020859
:1001E00001F0FF01102A2BDB10F0070F08D010F8E8
:1001F000013B013A8B422DD010F0070F42B3F6D1EC
:10020000F0B441EA012141EA014122F007047FF004
:1002100000070023F0E80256083C85EA010586EA5B
:10022000010685FA47F5A3FA87F586FA47F6A5FA97
:1002300087F68EB9EED1F0BC01F0FF0102F00702A3
:1002400032B110F8013B013A83EA010313B1F8D14E
:100250000020704701387047002D06BF354603382F
:10026000073815F0010F07D1013015F4807F02BF68
:10027000013015F4C03F0130F0BC0138704700BFB9
:10028000034613F8012B002AFBD1181A01387047D6
:1002900081F0004102E000BF83F0004330B54FEA37
:1002A00041044FEA430594EA050F08BF90EA020FA4
:1002B0001FBF54EA000C55EA020C7FEA645C7FEA37
:1002C000655C00F0E2804FEA5454D4EB5555B8BF5A
:1002D0006D420CDD2C4480EA020281EA030382EACB
:1002E000000083EA010180EA020281EA0303362D5D
:1002F00088BF30BD11F0004F4FEA01314FF4801C30
:100300004CEA113102D0404261EB410113F0004F41
:100310004FEA03334CEA133302D0524263EB4303F8
:1003200094EA050F00F0A780A4F10104D5F1200E96
:100330000DDB02FA0EFC22FA05F2801841F10001F1
:1003400003FA0EF2801843FA05F359410EE0A5F1C5
:1003500020050EF1200E012A03FA0EFC28BF4CF0F6
:10036000020C43FA05F3C01851EBE37101F00045AC
:1003700007D54FF0000EDCF1000C7EEB00006EEBB9
:100380000101B1F5801F1BD3B1F5001F0CD3490843
:100390005FEA30004FEA3C0C04F101044FEA44529A
:1003A00012F5800F80F09A80BCF1004F08BF5FEA21
:1003B000500C50F1000041EB045141EA050130BD01
:1003C0005FEA4C0C404141EB0101013C28BFB1F513
:1003D000801FE9D291F0000F04BF01460020B1FA5E
:1003E00081F308BF2033A3F10B03B3F120020CDA31
:1003F0000C3208DD02F1140CC2F10C0201FA0CF00F
:1004000021FA02F10CE002F11402D8BFC2F1200C73
:1004100001FA02F120FA0CFCDCBF41EA0C01904029
:10042000E41AA2BF01EB0451294330BD6FEA040472
:100430001F3C1CDA0C340EDC04F11404C4F120025D
:1004400020FA04F001FA02F340EA030021FA04F36F
:1004500045EA030130BDC4F10C04C4F1200220FAC6
:1004600002F001FA04F340EA0300294630BD21FA04
:1004700004F0294630BD94F0000F83F4801306BFCA
:1004800081F480110134013D4EE77FEA645C18BFBE
:100490007FEA655C29D094EA050F08BF90EA020F55
:1004A00005D054EA000C04BF1946104630BD91EA4D
:1004B000030F1EBF0021002030BD5FEA545C05D150
:1004C0004000494128BF41F0004130BD14F580048F
:1004D0003CBF01F5801130BD01F0004545F0FE4103
:1004E00041F470014FF0000030BD7FEA645C1ABF38
:1004F000194610467FEA655C1CBF0B46024650EA6F
:10050000013406BF52EA033591EA030F41F400219A
:1005100030BD00BF90F0000F04BF0021704730B520
:100520004FF4806404F132044FF000054FF00001F5
:1005300050E700BF90F0000F04BF0021704730B5B6
:100540004FF4806404F1320410F0004548BF40428B
:100550004FF000013EE700BF42004FEAE2014FEAE0
:1005600031014FEA02701FBF12F07F4393F07F4FBB
:1005700081F06051704732F07F4208BF704793F0BE
:100580007F4F04BF41F40021704730B54FF46074D1
:1005900001F0004521F000411CE700BF50EA0102D4
:1005A00008BF704730B54FF000050AE050EA01027D
:1005B00008BF704730B511F0004502D5404261EBED
:1005C00041014FF4806404F132045FEA915C3FF42E
:1005D000D8AE4FF003025FEADC0C18BF03325FEACB
:1005E000DC0C18BF033202EBDC02C2F1200300FA7C
:1005F00003FC20FA02F001FA03FE40EA0E0021FAA1
:1006000002F11444BDE600BF70B54FF0FF0C4CF48E
:10061000E06C1CEA11541DBF1CEA135594EA0C0F40
:1006200095EA0C0F00F0DEF82C4481EA030621EA7B
:100630004C5123EA4C5350EA013518BF52EA0335B6
:1006400041F4801143F4801338D0A0FB02CE4FF068
:100650000005E1FB02E506F00042E0FB03E54FF098
:100660000006E1FB03569CF0000F18BF4EF0010E90
:10067000A4F1FF04B6F5007F64F5407404D25FEA8C
:100680004E0E6D4146EB060642EAC62141EA55513F
:100690004FEAC52040EA5E504FEACE2EB4F1FD0C81
:1006A00088BFBCF5E06F1ED8BEF1004F08BF5FEAFF
:1006B000500E50F1000041EB045170BD06F00046B1
:1006C00046EA010140EA020081EA0301B4EB5C045E
:1006D000C2BFD4EB0C0541EA045170BD41F4801156
:1006E0004FF0000E013C00F3AB8014F1360FDEBF7B
:1006F000002001F0004170BDC4F10004203C35DA57
:100700000C341BDC04F11404C4F1200500FA05F3D9
:1007100020FA04F001FA05F240EA020001F000427A
:1007200021F0004110EBD37021FA04F642EB0601F0
:100730005EEA430E08BF20EAD37070BDC4F10C041A
:10074000C4F1200500FA04F320FA05F001FA04F2DE
:1007500040EA020001F0004110EBD37041F10001CA
:100760005EEA430E08BF20EAD37070BDC4F12005D5
:1007700000FA05F24EEA020E20FA04F301FA05F23D
:1007800043EA020321FA04F001F0004121FA04F2E5
:1007900020EA020000EBD3705EEA430E08BF20EAB5
:1007A000D37070BD94F0000F0FD101F000464000EF
:1007B00041EB010111F4801F08BF013CF7D041EA71
:1007C000060195F0000F18BF704703F00046520075
:1007D00043EB030313F4801F08BF013DF7D043EA46
:1007E0000603704794EA0C0F0CEA135518BF95EAFC
:1007F0000C0F0CD050EA410618BF52EA4306D1D183
:1008000081EA030101F000414FF0000070BD50EAA1
:10081000410606BF1046194652EA430619D094EA2B
:100820000C0F02D150EA013613D195EA0C0F05D115
:1008300052EA03361CBF104619460AD181EA030169
:1008400001F0004141F0FE4141F470014FF0000021
:1008500070BD41F0FE4141F4780170BD70B54FF0BC
:10086000FF0C4CF4E06C1CEA11541DBF1CEA13553C
:1008700094EA0C0F95EA0C0F00F0A7F8A4EB05041E
:1008800081EA030E52EA03354FEA013100F0888015
:100890004FEA03334FF0805545EA131343EA1263DE
:1008A0004FEA022245EA111545EA10654FEA002693
:1008B0000EF000419D4208BF964244F1FD0404F54C
:1008C000407402D25B084FEA3202B61A65EB0305A8
:1008D0005B084FEA32024FF480104FF4002CB6EB65
:1008E000020E75EB030E22BFB61A754640EA0C00E5
:1008F0005B084FEA3202B6EB020E75EB030E22BF25
:10090000B61A754640EA5C005B084FEA3202B6EB65
:10091000020E75EB030E22BFB61A754640EA9C0024
:100920005B084FEA3202B6EB020E75EB030E22BFF4
:10093000B61A754640EADC0055EA060E18D04FEAB2
:10094000051545EA16754FEA06164FEAC30343EA52
:1009500052734FEAC2025FEA1C1CC0D111F4801F1F
:100960000BD141EA00014FF000004FF0004CB6E718
:1009700011F4801F04BF01430020B4F1FD0C88BFB7
:10098000BCF5E06F3FF6AFAEB5EB030C04BFB6EBC2
:10099000020C5FEA500C50F1000041EB045170BDB5
:1009A0000EF0004E4EEA113114EB5C04C2BFD4EBE2
:1009B0000C0541EA045170BD41F480114FF0000E66
:1009C000013C90E645EA060E8DE60CEA135594EAE2
:1009D0000C0F08BF95EA0C0F3FF43BAF94EA0C0FE5
:1009E0000AD150EA01347FF434AF95EA0C0F7FF45A
:1009F00025AF104619462CE795EA0C0F06D152EAAE
:100A000003353FF4FDAE1046194622E750EA410691
:100A100018BF52EA43067FF4C5AE50EA41047FF4A2
:100A20000DAF52EA43057FF4EBAE12E74FF0FF3C07
:100A300006E000BF4FF0010C02E000BF4FF0010CD8
:100A40004DF804CD4FEA410C7FEA6C5C4FEA430C51
:100A500018BF7FEA6C5C1BD001B050EA410C0CBFA0
:100A600052EA430C91EA030F02BF90EA020F002002
:100A7000704710F1000F91EA030F58BF994208BF69
:100A800090422CBFD8176FEAE37040F00100704726
:100A90004FEA410C7FEA6C5C02D150EA013C07D17D
:100AA0004FEA430C7FEA6C5CD6D152EA033CD3D0C8
:100AB0005DF8040B704700BF8446104662468C46C2
:100AC0001946634600E000BF01B5FFF7B7FF0028F5
:100AD00048BF10F1000F01BD4DF808EDFFF7F4FF1E
:100AE0000CBF012000205DF808FB00BF4DF808EDA9
:100AF000FFF7EAFF34BF012000205DF808FB00BFCC
:100B00004DF808EDFFF7E0FF94BF012000205DF8ED
:100B100008FB00BF4DF808EDFFF7CEFF94BF0120A2
:100B200000205DF808FB00BF4DF808EDFFF7C4FF9B
:100B300034BF012000205DF808FB00BF4FEA410CE4
:100B40007FEA6C5C02D150EA013C0AD14FEA430CC7
:100B50007FEA6C5C02D152EA033C02D14FF0000004
:100B600070474FF0010070474FEA410212F5001242
:100B700015D211D56FF47873B3EB625212D94FEAE4
:100B8000C12343F0004343EA505311F0004F23FACE
:100B900002F018BF404270474FF00000704750EA23
:100BA000013005D111F0004008BF6FF000407047E0
:100BB0004FF00000704700BF4A0011D212F500123A
:100BC00011D20DD56FF47873B3EB62520ED44FEAA5
:100BD000C12343F0004343EA505323FA02F0704725
:100BE0004FF00000704750EA013002D14FF0FF3063
:100BF00070474FF0000070474FEA4102B2F1E04306
:100C000024BFB3F5001CDCF1FE5C0DD901F0004CF3
:100C10004FEAC0024CEA5070B2F1004F40EB830043
:100C200008BF20F00100704711F0804F21D113F16F
:100C30003872BCBF01F00040704741F480114FEAA8
:100C40005252C2F11802C2F1200C10FA0CF320FA31
:100C500002F018BF40F001004FEAC1234FEAD3234E
:100C600003FA0CFC40EA0C0023FA02F34FEA4303B8
:100C7000CCE77FEA625307D150EA01331EBF4FF041
:100C8000FE4040F44000704701F0004040F0FE405C
:100C900040F40000704700BF53B94AB9002908BFAB
:100CA00000281CBF4FF0FF314FF0FF3000F0A6B915
:100CB000ADF1080C6DE904CE00F03CF8DDF804E07D
:100CC000DDE9022304B0704738B500220023044652
:100CD0000D46FFF70BFF28B920462946BDE83840EE
:100CE00000F00AB8204605F1004100F005F8404246
:100CF00061EB410138BD00BFD0B50C4B0022064668
:100D00000F46FFF781FCFFF757FF0446FFF702FC91
:100D1000074B0022FFF778FC02460B463046394667
:100D2000FFF7BAFAFFF748FF2146D0BD0000F03DBB
:100D30000000F0412DE9F047089E0D4604460F469D
:100D4000002B4AD18A42944665D9B2FA82F343B164
:100D500002FA03FCC3F120029F4020FA02F217437B
:100D60009C404FEA1C4E1FFA8CF5B7FBFEF1220C9B
:100D70000EFB117742EA074201FB05F090420AD9C7
:100D80001CEB020201F1FF3780F01C81904240F21F
:100D9000198102396244121AA4B2B2FBFEF00EFBB2
:100DA000102244EA024400FB05F5A5420AD91CEBD7
:100DB000040400F1FF3280F00781A54240F2048173
:100DC0006444023840EA0140641B00211EB1DC404B
:100DD0000023C6E90043BDE8F0878B4208D9002E06
:100DE00000F0ED800021C6E900050846BDE8F08767
:100DF000B3FA83F1002949D1AB4202D3824200F217
:100E0000F880841A65EB030201201746002EE2D019
:100E1000C6E90047DFE702B9FFDEB2FA82F3002B32
:100E200040F090808A1A4FEA1C471FFA8CFE01217D
:100E3000B2FBF7F507FB1520220C42EA00420EFB3D
:100E400005F0904208D91CEB020205F1FF3802D2EE
:100E5000904200F2CB804546121AA4B2B2FBF7F0E2
:100E600007FB102244EA02440EFB00FEA64508D907
:100E70001CEB040400F1FF3202D2A64500F2BB8055
:100E80001046A4EB0E0440EA05409FE7C1F120079D
:100E90008B4022FA07FC4CEA030C05FA01F420FA15
:100EA00007F3FD404FEA1C492343B5FBF9F81FFA4D
:100EB0008CFE09FB18551C0C44EA054408FB0EF592
:100EC000A54202FA01F200FA01F00BD91CEB04046E
:100ED00008F1FF3A80F08880A54240F28580A8F1B1
:100EE00002086444641B9DB2B4FBF9F309FB13448C
:100EF00045EA044403FB0EFEA64508D91CEB040496
:100F000003F1FF356CD2A6456AD9023B644443EA3B
:100F10000843A3FB0295A4EB0E04AC42C846AE46C0
:100F200056D353D056B1B0EB080264EB0E0404FA6A
:100F300007F7CA40CC401743C6E9007418460021A1
:100F4000BDE8F087C3F1200102FA03FC20FA01F2A8
:100F500025FA01F19D402A434FEA1C471FFA8CFEF7
:100F6000B1FBF7F007FB1015110C41EA054100FB3E
:100F70000EF58D4204FA03F408D91CEB010100F1CF
:100F8000FF382FD28D422DD902386144491B92B2CD
:100F9000B1FBF7F507FB151142EA014205FB0EF123
:100FA000914208D91CEB020205F1FF3816D291429A
:100FB00014D9023D6244521A45EA004138E73146ED
:100FC000304608E73946E6E61046FBE64845A9D232
:100FD000B9EB020865EB0C0E013BA3E74546EAE7D7
:100FE0002B4694E74046D1E7D0467BE7023D62447A
:100FF00032E708460AE76444023842E7704700BF18
:1010000080B588B000AF07F10C0300221A605A6067
:101010009A60DA601A610023BB601F4B1B6B1E4A8B
:1010200043F0800313631C4B1B6B03F08003BB6016
:10103000BB6800237B60184B1B6B174A43F001030E
:101040001363154B1B6B03F001037B607B6800236C
:101050003B60114B1B6B104A43F0020313630E4BB2
:101060001B6B03F002033B603B68002202210B482C
:1010700001F054F90223FB6001233B6100237B61F3
:101080000223BB6107F10C031946044800F0C2FFBC
:1010900000BF2037BD4680BD00380240000002403E
:1010A000B0B588B000AF00F09FFD00F095F8FFF7F5
:1010B000A7FF00F095FB00F0E7FB00F0F1FC00F06B
:1010C000F1F93C213B4802F035F900213A4801F0A2
:1010D000DBFF14220021394804F0BFFE384B07F132
:1010E00008041D460FCD0FC42B68236007F10803C9
:1010F0001846FFF7C5F803469AB207F108014FF00A
:10110000FF33304802F098FEF91D4FF0FF33012203
:101110002C4802F01CFFF91D4FF0FF330122294833
:1011200002F08AFEFB790A2B2DD1274B1B781A4639
:10113000224B00219954254A2549204804F01CFEE1
:101140000346012B11D11B4B1B685B6AFB83FB8B96
:101150005B429BB2FB831D4BD3ED007AB7F91E3087
:101160001846B0EE670A00F0A3F8142200211348D5
:1011700004F073FE144B00221A70164B1B680133E7
:10118000144A1360C0E7104B1B785A1CD1B20E4AA8
:1011900011701A46F979094B99540B4B1B78122B95
:1011A000B2D914220021054804F057FE064B002254
:1011B0001A70A9E73C02002084020020F001002000
:1011C000FC9E0208CC02002008020020040200203D
:1011D000F89E02080C02002080B594B000AF07F121
:1011E000200330220021184604F037FE07F10C03DB
:1011F00000221A605A609A60DA601A610023BB60AC
:10120000294B1B6C284A43F080531364264B1B6CFC
:1012100003F08053BB60BB6800237B60234B1B68DB
:1012200023F44043214A43F4004313601F4B1B68DF
:1012300003F440437B607B680A233B620123FB622B
:1012400010233B6301237B630223BB630023FB6307
:1012500008233B6454237B640223BB640423FB64A4
:1012600007F12003184601F073F80346002B01D064
:1012700000F012F90F23FB6002233B6100237B6126
:101280004FF48053BB610023FB6107F10C03022183
:10129000184601F0D5FA0346002B01D000F0FCF807
:1012A00000BF5037BD4680BD00380240007000408E
:1012B00080B588B000AF87ED010A03467B804FF010
:1012C0000003BB617B687B6197ED067AD7ED057AF9
:1012D00077EE277AC7ED067A654BD3ED007A97ED66
:1012E000057A77EE677AC7ED047AD7ED057A9FED38
:1012F000617A27EE877AD7ED047AF2EE046A67EE18
:10130000A67A77EE277AC7ED037A594A7B6913608C
:10131000D7ED017A9FED587AF4EEC77AF1EE10FA24
:1013200011DD97ED017AF0EE086AC7EE267A9FED9F
:10133000537A67EE877AFDEEE77A17EE903A1AB2A3
:101340004F4B1A801DE0D7ED017A9FED4E7AF4EEF7
:10135000C77AF1EE10FA11D597ED017AF0EE086A2E
:10136000C7EE267A9FED457A67EE877AFDEEE77A3B
:1013700017EE903A1AB2424B1A8002E0404B00221C
:101380001A803F4BB3F90030B3F5FA7F03DD3C4BD5
:101390004FF4FA721A803A4BB3F9003013F5FA7F22
:1013A00003DA374B4FF60C621A80354BB3F9003035
:1013B0009AB27B88D31A9BB27B81D7ED037AF0EE89
:1013C000E77A17EE900AFFF7C7F827A3D3E90023BF
:1013D000FFF744FA02460B46104619464FF000024A
:1013E000294BFFF711F902460B46104619464FF0FC
:1013F0000002264BFEF752FF02460B4610461946E6
:10140000FFF7DAFB0346FB61FB698C2B01D98C23C8
:10141000FB61FB69272B01D82823FB61B7F90A3050
:10142000002B09DD00220221194800F077FF194B3B
:101430001B68FA695A6311E0B7F90A30002B09DA20
:1014400001220221124800F069FF124B1B68FA6961
:101450005A6303E00F4B1B6800225A6300BF20371A
:10146000BD4680BDAFF300800000000000E06F408B
:101470001002002000004842CDCC4C3D0000FA4351
:1014800014020020CDCC4CBD000059400000444067
:10149000000002408402002080B400AF72B600BF9A
:1014A000FEE7000080B500AF0F4B104A1A600E4BEC
:1014B00000225A600C4B7F229A600B4BFF22DA60AD
:1014C000094B00221A61084B00225A61064B002288
:1014D0009A61054801F082FC0346002B01D0FFF71A
:1014E000DBFF00BF80BD00BF1802002000280040C5
:1014F00080B588B000AF786007F10C0300221A6055
:101500005A609A60DA601A617B681B680C4A9342E1
:1015100011D10223FB604FF40073BB6107F10C0390
:10152000184601F06DFB0346002B01D0FFF7B4FF16
:10153000044B01221A6000BF2037BD4680BD00BFAA
:10154000002800403C0E474280B483B000AF002327
:101550007B60104B5B6C0F4A43F4804353640D4B2C
:101560005B6C03F480437B607B6800233B60094B2A
:101570001B6C084A43F080531364064B1B6C03F04A
:1015800080533B603B6800BF0C37BD465DF8047B71
:10159000704700BF0038024080B400AFFEE780B45F
:1015A00000AFFEE780B400AFFEE780B400AFFEE717
:1015B00080B400AFFEE780B400AF00BFBD465DF869
:1015C000047B704780B400AF00BFBD465DF8047B6C
:1015D000704780B400AF00BFBD465DF8047B704724
:1015E00080B500AF00F052FB00BF80BD80B500AFFA
:1015F000024801F02DFF00BF80BD00BF3C0200206B
:1016000080B500AF024801F023FF00BF80BD00BFDE
:101610008402002080B500AF024802F02FFD00BF19
:1016200080BD00BFCC02002080B400AF012318466B
:10163000BD465DF8047B704780B582B000AF78602E
:10164000396004F05DFC034616221A604FF0FF3348
:1016500018460837BD4680BD80B582B000AF7860BF
:101660004FF0FF317868FFF7E7FFFEE780B586B0FF
:1016700000AFF860B9607A6000237B610AE0AFF3E5
:1016800000800146BB685A1CBA60CAB21A707B69F6
:1016900001337B617A697B689A42F0DB7B6818468C
:1016A0001837BD4680BD80B586B000AFF860B96020
:1016B0007A6000237B6109E0BB685A1CBA601B7822
:1016C0001846AFF300807B6901337B617A697B68E0
:1016D0009A42F1DB7B6818461837BD4680BD80B45E
:1016E00083B000AF78604FF0FF3318460C37BD462B
:1016F0005DF8047B704780B483B000AF78603960D8
:101700003B684FF400525A60002318460C37BD4620
:101710005DF8047B704780B483B000AF786001232C
:1017200018460C37BD465DF8047B704780B485B021
:1017300000AFF860B9607A60002318461437BD46E0
:101740005DF8047B7047000080B586B000AF78601C
:10175000144A154BD31A7B617B693B61134B1B68A1
:10176000002B02D1114B124A1A60104B1A687B6889
:1017700013443A699A4207D204F0C2FB03460C2292
:101780001A604FF0FF3309E0084B1B68FB60074B02
:101790001A687B681344054A1360FB6818461837BB
:1017A000BD4680BD008001200004000038020020FA
:1017B0006804002080B400AF074BD3F88830064A95
:1017C00043F47003C2F88830034B044A9A6000BFA8
:1017D000BD465DF8047B704700ED00E000000208A4
:1017E00080B58CB000AF07F10C032422002118460D
:1017F00004F033FB3B1D00221A605A60204B214A43
:101800001A601F4B00225A601D4B00229A601C4B2D
:101810004FF6FF72DA601A4B00221A61184B002251
:101820009A610123FB6000233B6101237B6100235C
:10183000BB610023FB6100233B6201237B62002329
:10184000BB620023FB6207F10C0319460C4801F050
:10185000CBFC0346002B01D0FFF71EFE00237B606C
:101860000023BB603B1D1946054802F013FA0346EE
:10187000002B01D0FFF710FE00BF3037BD4680BD02
:101880003C0200200004004080B58AB000AF07F1A0
:10189000200300221A605A603B1D00221A605A6021
:1018A0009A60DA601A615A619A61224B224A1A6080
:1018B000204B53225A601F4B00229A601D4B40F26E
:1018C000E732DA601B4B00221A611A4B80229A61C0
:1018D000184801F089FB0346002B01D0FFF7DCFD1F
:1018E00000233B6200237B6207F120031946114865
:1018F00002F0D0F90346002B01D0FFF7CDFD6023A5
:101900007B600023BB600023FB6000237B613B1DE9
:1019100000221946074801F08BFE0346002B01D038
:10192000FFF7BAFD034800F081F800BF2837BD4635
:1019300080BD00BF840200200008004080B58AB04E
:1019400000AF786007F1140300221A605A609A60B1
:10195000DA601A617B681B681D4A934233D1002309
:101960003B611C4B1B6C1B4A43F002031364194B75
:101970001B6C03F002033B613B690023FB60154BCA
:101980001B6B144A43F001031363124B1B6B03F0F0
:101990000103FB60FB68C0237B610223BB61002362
:1019A000FB6100233B6202237B6207F114031946AB
:1019B000094800F02FFB002200211D2000F061FAF1
:1019C0001D2000F07AFA00BF2837BD4680BD00BF59
:1019D00000040040003802400000024080B584B09E
:1019E00000AF78607B681B680E4A934215D10023D4
:1019F000FB600D4B1B6C0C4A43F0040313640A4B51
:101A00001B6C03F00403FB60FB68002200211E2016
:101A100000F037FA1E2000F050FA00BF1037BD4624
:101A200080BD00BF000800400038024080B588B08B
:101A300000AF786007F10C0300221A605A609A60C8
:101A4000DA601A617B681B68124A93421DD1002339
:101A5000BB60114B1B6B104A43F0020313630E4B28
:101A60001B6B03F00203BB60BB684023FB600223D7
:101A70003B6100237B610023BB610223FB6107F113
:101A80000C031946054800F0C5FA00BF2037BD46D3
:101A900080BD00BF00080040003802400004024042
:101AA00080B500AF114B124A1A60104B4FF4E1326F
:101AB0005A600E4B00229A600C4B0022DA600B4BEE
:101AC00000221A61094B0C225A61084B00229A61CC
:101AD000064B0022DA61054802F05EF90346002B4E
:101AE00001D0FFF7D9FC00BF80BD00BFCC020020B1
:101AF0000044004080B58AB000AF786007F114035D
:101B000000221A605A609A60DA601A617B681B686A
:101B10001D4A934233D100233B611C4B1B6C1B4A73
:101B200043F400331364194B1B6C03F400333B6123
:101B30003B690023FB60154B1B6B144A43F0010308
:101B40001363124B1B6B03F00103FB60FB680C2358
:101B50007B610223BB610023FB6103233B620723FC
:101B60007B6207F114031946094800F053FA00227A
:101B70000021262000F085F9262000F09EF900BF04
:101B80002837BD4680BD00BF0044004000380240F9
:101B900000000240DFF834D0FFF70CFE0C480D497E
:101BA0000D4A002302E0D458C4500433C4188C42B8
:101BB000F9D30A4A0A4C002301E013600432A2421E
:101BC000FBD304F0A3F9FFF76BFA70470080012004
:101BD00000000020D4010020ACA30208D4010020A2
:101BE00064040020FEE7000080B500AF0E4B1B68C8
:101BF0000D4A43F4007313600B4B1B680A4A43F40D
:101C000080631360084B1B68074A43F480731360BA
:101C1000032000F02BF90F2000F008F8FFF794FCE8
:101C20000023184680BD00BF003C024080B582B052
:101C300000AF7860124B1A68124B1B7819464FF4AC
:101C40007A73B3FBF1F3B2FBF3F3184600F043F9F8
:101C50000346002B01D001230EE07B680F2B0AD82E
:101C6000002279684FF0FF3000F00BF9064A7B68DC
:101C70001360002300E0012318460837BD4680BDED
:101C800000000020080000200400002080B400AF05
:101C9000064B1B781A46064B1B681344044A136014
:101CA00000BFBD465DF8047B704700BF0800002000
:101CB0001403002080B400AF034B1B681846BD46D8
:101CC0005DF8047B704700BF1403002080B485B02A
:101CD00000AF78607B6803F00703FB600C4BDB68A8
:101CE000BB60BA684FF6FF031340BB60FB681A0283
:101CF000BB68134343F0BF6343F40033BB60044A43
:101D0000BB68D36000BF1437BD465DF8047B7047E5
:101D100000ED00E080B400AF044BDB681B0A03F069
:101D200007031846BD465DF8047B704700ED00E0F0
:101D300080B483B000AF0346FB7197F90730002BE6
:101D40000BDBFB7903F01F02074997F907305B09AA
:101D5000012000FA02F241F8232000BF0C37BD46F3
:101D60005DF8047B704700BF00E100E080B483B001
:101D700000AF03463960FB7197F90730002B0ADB8F
:101D80003B68DAB20C4997F907301201D2B20B4422
:101D900083F800230AE03B68DAB20849FB7903F0D4
:101DA0000F03043B1201D2B20B441A7600BF0C376A
:101DB000BD465DF8047B704700E100E000ED00E007
:101DC00080B489B000AFF860B9607A60FB6803F056
:101DD0000703FB61FB69C3F10703042B28BF04233E
:101DE000BB61FB690433062B02D9FB69033B00E0AE
:101DF00000237B614FF0FF32BB6902FA03F3DA4341
:101E0000BB681A407B699A404FF0FF317B6901FA49
:101E100003F3D9437B680B40134318462437BD4670
:101E20005DF8047B7047000080B582B000AF786039
:101E30007B68013BB3F1807F01D301230FE00A4AA5
:101E40007B68013B53600F214FF0FF30FFF78EFF9F
:101E5000054B00229A60044B07221A6000231846A3
:101E60000837BD4680BD00BF10E000E080B582B0FD
:101E700000AF78607868FFF729FF00BF0837BD46DC
:101E800080BD80B586B000AF0346B9607A60FB7351
:101E900000237B61FFF73EFF78617A68B968786953
:101EA000FFF78EFF024697F90F3011461846FFF7ED
:101EB0005DFF00BF1837BD4680BD80B582B000AF62
:101EC0000346FB7197F907301846FFF731FF00BF53
:101ED0000837BD4680BD80B582B000AF78607868B5
:101EE000FFF7A2FF034618460837BD4680BD80B500
:101EF00084B000AF78607B689B6DFB60FFF7DAFE13
:101F0000B8607B6893F83530DBB2022B08D07B6871
:101F100080225A657B68002283F83420012352E036
:101F20007B681B681A687B681B6822F016021A60BF
:101F30007B681B685A697B681B6822F080025A61C3
:101F40007B681B6C002B03D17B689B6C002B07D03C
:101F50007B681B681A687B681B6822F008021A609D
:101F60007B681B681A687B681B6822F001021A6094
:101F700013E0FFF79FFE0246BB68D31A052B0CD96E
:101F80007B6820225A657B68032283F835207B68B2
:101F9000002283F83420032315E07B681B681B684C
:101FA00003F00103002BE4D17B68DB6D3F229A40F4
:101FB000FB689A607B68012283F835207B680022E9
:101FC00083F83420002318461037BD4680BD80B406
:101FD00083B000AF78607B6893F83530DBB2022BBA
:101FE00004D07B6880225A6501230CE07B680522BF
:101FF00083F835207B681B681A687B681B6822F0B1
:1020000001021A60002318460C37BD465DF8047BB8
:102010007047000080B489B000AF78603960002359
:102020007B6100233B610023BB610023FB6159E11D
:102030000122FB6902FA03F37B613B681B687A6942
:1020400013403B613A697B699A4240F048813B68A2
:102050005B6803F00303012B05D03B685B6803F06A
:102060000303022B30D17B689B68BB61FB695B007B
:10207000032202FA03F3DB43BA691340BB613B68F6
:10208000DA68FB695B0002FA03F3BA691343BB61C8
:102090007B68BA699A607B685B68BB610122FB69F7
:1020A00002FA03F3DB43BA691340BB613B685B6828
:1020B0001B0903F00102FB6902FA03F3BA69134337
:1020C000BB617B68BA695A603B685B6803F00303D5
:1020D000032B17D07B68DB68BB61FB695B000322C5
:1020E00002FA03F3DB43BA691340BB613B689A68A9
:1020F000FB695B0002FA03F3BA691343BB617B68B7
:10210000BA69DA603B685B6803F00303022B23D1F2
:10211000FB69DA087B68083253F82230BB61FB693F
:1021200003F007039B000F2202FA03F3DB43BA69B3
:102130001340BB613B681A69FB6903F007039B000E
:1021400002FA03F3BA691343BB61FB69DA087B68DF
:102150000832B96943F822107B681B68BB61FB69D0
:102160005B00032202FA03F3DB43BA691340BB614D
:102170003B685B6803F00302FB695B0002FA03F350
:10218000BA691343BB617B68BA691A603B685B68D4
:1021900003F44033002B00F0A2800023FB60574B78
:1021A0005B6C564A43F480435364544B5B6C03F4BA
:1021B0008043FB60FB68524AFB699B08023352F87C
:1021C0002330BB61FB6903F003039B000F2202FA7B
:1021D00003F3DB43BA691340BB617B68494A93420E
:1021E00019D07B68484A934213D07B68474A934290
:1021F0000DD07B68464A934207D07B68454A93429C
:1022000001D1042308E0072306E0032304E00223AE
:1022100002E0012300E00023FA6902F003029200C9
:102220009340BA691343BB613549FB699B0802338C
:10223000BA6941F82320384B9B68BB613B69DB439B
:10224000BA691340BB613B685B6803F48013002BE1
:1022500003D0BA693B691343BB612F4ABB699360E2
:102260002D4BDB68BB613B69DB43BA691340BB6143
:102270003B685B6803F40013002B03D0BA693B6929
:102280001343BB61244ABB69D360234B5B68BB61CA
:102290003B69DB43BA691340BB613B685B6803F48D
:1022A0000033002B03D0BA693B691343BB611A4A60
:1022B000BB695360184B1B68BB613B69DB43BA6960
:1022C0001340BB613B685B6803F48033002B03D091
:1022D000BA693B691343BB610F4ABB691360FB6971
:1022E0000133FB61FB690F2B7FF6A2AE00BF00BF7D
:1022F0002437BD465DF8047B704700BF00380240BC
:102300000038014000000240000402400008024082
:10231000000C024000100240003C014080B483B039
:1023200000AF78600B467B8013467B707B78002B78
:1023300003D07A887B689A6103E07B881A047B6803
:102340009A6100BF0C37BD465DF8047B7047000002
:1023500080B586B000AF78607B68002B01D1012387
:1023600067E27B681B6803F00103002B75D0884B84
:102370009B6803F00C03042B0CD0854B9B6803F087
:102380000C03082B12D1824B5B6803F48003B3F576
:10239000800F0BD17E4B1B6803F40033002B5BD006
:1023A0007B685B68002B57D1012342E27B685B6846
:1023B000B3F5803F06D1764B1B68754A43F48033F2
:1023C00013601DE07B685B68B3F5A02F0CD1704BE8
:1023D0001B686F4A43F4802313606D4B1B686C4A83
:1023E00043F4803313600BE0694B1B68684A23F4A5
:1023F00080331360664B1B68654A23F480231360A7
:102400007B685B68002B13D0FFF754FC386108E051
:10241000FFF750FC02463B69D31A642B01D9032312
:1024200007E25B4B1B6803F40033002BF0D014E091
:10243000FFF740FC386108E0FFF73CFC02463B69CF
:10244000D31A642B01D90323F3E1514B1B6803F426
:102450000033002BF0D100E000BF7B681B6803F065
:102460000203002B63D04A4B9B6803F00C03002B44
:102470000BD0474B9B6803F00C03082B1CD1444B3B
:102480005B6803F48003002B16D1414B1B6803F0FB
:102490000203002B05D07B68DB68012B01D00123F0
:1024A000C7E13B4B1B6823F0F8027B681B69DB002C
:1024B000374913430B603AE07B68DB68002B20D080
:1024C000344B01221A60FFF7F5FB386108E0FFF793
:1024D000F1FB02463B69D31A022B01D90323A8E181
:1024E0002B4B1B6803F00203002BF0D0284B1B681A
:1024F00023F0F8027B681B69DB00254913430B605E
:1025000015E0244B00221A60FFF7D4FB386108E085
:10251000FFF7D0FB02463B69D31A022B01D90323F4
:1025200087E11B4B1B6803F00203002BF0D17B6893
:102530001B6803F00803002B36D07B685B69002B17
:1025400016D0154B01221A60FFF7B4FB386108E082
:10255000FFF7B0FB02463B69D31A022B01D90323D4
:1025600067E10B4B5B6F03F00203002BF0D01BE025
:10257000094B00221A60FFF79DFB38610EE0FFF760
:1025800099FB02463B69D31A022B07D9032350E17A
:102590000038024000004742800E4742884B5B6F84
:1025A00003F00203002BEAD17B681B6803F00403ED
:1025B000002B00F097800023FB75814B1B6C03F010
:1025C0008053002B0FD10023BB607D4B1B6C7C4ADA
:1025D00043F0805313647A4B1B6C03F08053BB6051
:1025E000BB680123FB75774B1B6803F48073002BDA
:1025F00018D1744B1B68734A43F480731360FFF760
:1026000059FB386108E0FFF755FB02463B69D31AD6
:10261000022B01D903230CE16A4B1B6803F480737E
:10262000002BF0D07B689B68012B06D1644B1B6F9D
:10263000634A43F0010313671CE07B689B68052B2A
:102640000CD15F4B1B6F5E4A43F0040313675C4B76
:102650001B6F5B4A43F0010313670BE0584B1B6F82
:10266000574A23F001031367554B1B6F544A23F05D
:10267000040313677B689B68002B15D0FFF71AFBD8
:1026800038610AE0FFF716FB02463B69D31A41F2B4
:102690008832934201D90323CBE0494B1B6F03F0EF
:1026A0000203002BEED014E0FFF704FB38610AE0D0
:1026B000FFF700FB02463B69D31A41F2883293428E
:1026C00001D90323B5E03E4B1B6F03F00203002B3F
:1026D000EED1FB7D012B05D1394B1B6C384A23F021
:1026E000805313647B689B69002B00F0A180344BFE
:1026F0009B6803F00C03082B5CD07B689B69022B62
:1027000041D1314B00221A60FFF7D4FA386108E05A
:10271000FFF7D0FA02463B69D31A022B01D90323F3
:1027200087E0274B1B6803F00073002BF0D17B6818
:10273000DA697B681B6A1A437B685B6A9B011A43F0
:102740007B689B6A5B08013B1B041A437B68DB6A5E
:102750001B061B4913434B601B4B01221A60FFF7FA
:10276000A9FA386108E0FFF7A5FA02463B69D31AD7
:10277000022B01D903235CE0114B1B6803F00073AB
:10278000002BF0D054E0104B00221A60FFF792FAB1
:10279000386108E0FFF78EFA02463B69D31A022B34
:1027A00001D9032345E0064B1B6803F00073002B9F
:1027B000F0D13DE07B689B69012B07D1012338E014
:1027C0000038024000700040600047421B4B5B68CD
:1027D000FB607B689B69012B28D0FB6803F48002B7
:1027E0007B68DB699A4221D1FB6803F03F027B687A
:1027F0001B6A9A421AD1FA6847F6C07313407A6886
:10280000526A9201934211D1FB6803F440327B6813
:102810009B6A5B08013B1B049A4207D1FB6803F0EB
:1028200070627B68DB6A1B069A4201D0012300E0DC
:10283000002318461837BD4680BD00BF003802404F
:1028400080B584B000AF786039607B68002B01D11F
:102850000123CCE0684B1B6803F007033A689A42F7
:102860000CD9654B3A68D2B21A70634B1B6803F0FF
:1028700007033A689A4201D00123B8E07B681B68DD
:1028800003F00203002B20D07B681B6803F00403D5
:10289000002B05D0594B9B68584A43F4E053936092
:1028A0007B681B6803F00803002B05D0534B9B6823
:1028B000524A43F460439360504B9B6823F0F0020C
:1028C0007B689B684D4913438B607B681B6803F0F2
:1028D0000103002B44D07B685B68012B07D1474B79
:1028E0001B6803F40033002B19D101237FE07B68C0
:1028F0005B68022B03D07B685B68032B07D13F4BDF
:102900001B6803F00073002B09D101236FE03B4BE0
:102910001B6803F00203002B01D1012367E0374B52
:102920009B6823F003027B685B68344913438B6028
:10293000FFF7C0F9F8600AE0FFF7BCF90246FB6850
:10294000D31A41F28832934201D903234FE02B4B33
:102950009B6803F00C027B685B689B009A42EBD19A
:10296000254B1B6803F007033A689A420CD2224BAE
:102970003A68D2B21A70204B1B6803F007033A681A
:102980009A4201D0012332E07B681B6803F0040304
:10299000002B08D0194B9B6823F4E0527B68DB685E
:1029A000164913438B607B681B6803F00803002BF8
:1029B00009D0124B9B6823F460427B681B69DB00E3
:1029C0000E4913438B6000F021F802460B4B9B68C5
:1029D0001B0903F00F030A49CB5C22FA03F3094AEF
:1029E0001360094B1B681846FFF720F900231846AF
:1029F0001037BD4680BD00BF003C02400038024099
:102A00003C9F020800000020040000202DE9B04F88
:102A100090B000AF00237B630023FB6300233B6384
:102A20000023BB63594B9B6803F00C03082B0DD0AC
:102A3000082B00F2A180002B02D0042B03D09BE0D6
:102A4000534BBB639BE0534BBB6398E04F4B5B68BE
:102A500003F03F037B634D4B5B6803F48003002B63
:102A600028D04A4B5B689B0900223B627A623B6A32
:102A7000C3F308000021474B03FB01F2002300FBD6
:102A800003F31344434AA0FB0212FA620A46BA62F5
:102A9000FA6A1344FB627B6B0022BB61FA61D7E9DF
:102AA0000623D7E90A01FEF7F7F802460B4613465C
:102AB000FB6353E0354B5B689B0900223B617A6105
:102AC0003B69C3F3080A4FF0000B52465B464FF0D8
:102AD00000004FF00001590141EAD2615001024665
:102AE0000B46B2EB0A0863EB0B094FF000024FF004
:102AF00000034FEA891343EA98634FEA8812B2EB66
:102B0000080463EB09054FF000024FF00003EB00EF
:102B100043EA5473E20014461D4614EB0A033B607B
:102B200045EB0B037B604FF000024FF00003D7E949
:102B3000004529468B02214643EA915321468A02E9
:102B4000104619467B6B0022BB60FA60D7E902236E
:102B5000FEF7A2F802460B461346FB630B4B5B687D
:102B60001B0C03F0030301335B003B63FA6B3B6B0D
:102B7000B2FBF3F3BB6302E0054BBB6300BFBB6B6F
:102B800018464037BD46BDE8B08F00BF0038024050
:102B90000024F40040787D0180B400AF034B1B6833
:102BA0001846BD465DF8047B704700BF000000205A
:102BB00080B500AFFFF7F0FF0246054B9B689B0A0C
:102BC00003F007030349CB5C22FA03F3184680BDE8
:102BD000003802404C9F020880B500AFFFF7DCFFD1
:102BE0000246054B9B685B0B03F007030349CB5C74
:102BF00022FA03F3184680BD003802404C9F0208B9
:102C000080B586B000AF786000237B6100233B6114
:102C10007B681B6803F00103002B05D17B681B68F0
:102C200003F00403002B35D0674B00221A60FFF736
:102C300041F8786108E0FFF73DF802467B69D31A56
:102C4000022B01D90323BAE0604B1B6803F0006339
:102C5000002BF0D17B685B689A017B689B681B073F
:102C60005A491343C1F88430574B01221A60FFF7C9
:102C700021F8786108E0FFF71DF802467B69D31A56
:102C8000022B01D903239AE0504B1B6803F0006329
:102C9000002BF0D07B681B6803F00203002B00F0D0
:102CA00083800023FB60494B1B6C484A43F08053F0
:102CB0001364464B1B6C03F08053FB60FB68444B72
:102CC0001B68434A43F480731360FEF7F3FF786197
:102CD00008E0FEF7EFFF02467B69D31A022B01D909
:102CE00003236CE03A4B1B6803F48073002BF0D095
:102CF000364B1B6F03F440733B613B69002B2FD0B5
:102D00007B68DB6803F440733A699A4228D02F4B02
:102D10001B6F23F440733B612E4B01221A602D4B35
:102D200000221A60294A3B691367284B1B6F03F086
:102D30000103012B14D1FEF7BDFF78610AE0FEF715
:102D4000B9FF02467B69D31A41F28832934201D916
:102D5000032334E01D4B1B6F03F00203002BEED066
:102D60007B68DB6803F44073B3F5407F0DD1174BEC
:102D70009B6823F4F8127B68DB6823F0704323F42C
:102D80004073124913438B6005E0104B9B680F4A58
:102D900023F4F81393600D4B1A6F7B68DB68C3F361
:102DA0000B030A4913430B677B681B6803F0080396
:102DB000002B03D07B681A7C074B1A60002318464F
:102DC0001837BD4680BD00BF68004742003802404A
:102DD00000700040400E4742E011474280B584B089
:102DE00000AF78600123FB737B68002B01D10123C6
:102DF00073E07B685B7FDBB2002B05D17B68002230
:102E00001A777868FEF774FB7B6802225A777B6832
:102E10001B68DB6803F01003102B55D07B681B6820
:102E2000CA225A627B681B6853225A62786800F093
:102E30007FF80346FB73FB7B002B2CD17B681B6860
:102E40009B687A68126823F4E00323F040039360E0
:102E50007B681B6899687B685A687B681B691A43A2
:102E60007B685B691A437B681B680A439A607B68CE
:102E70001B687A68D2681A617B681B6819697B686D
:102E80009B681A047B681B680A431A61786800F023
:102E900086F80346FB73FB7B002B10D17B681B6815
:102EA0001A6C7B681B6822F480221A647B681B689A
:102EB000196C7B689A697B681B680A431A647B6893
:102EC0001B68FF225A6201E00023FB73FB7B002B8F
:102ED00002D17B6801225A77FB7B18461037BD462A
:102EE00080BD000080B584B000AF78600023FB6037
:102EF0007B681B680D4ADA60FEF7DCFEF86009E0CB
:102F0000FEF7D8FE0246FB68D31AB3F57A7F01D9E3
:102F1000032307E07B681B68DB6803F02003002BBA
:102F2000EED0002318461037BD4680BD5F3F01003C
:102F300080B584B000AF78600023BB600023FB73D2
:102F40007B681B68DB6803F04003002B22D17B68A1
:102F50001B68DA687B681B6842F08002DA60FEF763
:102F6000A9FEB8600CE0FEF7A5FE0246BB68D31AC6
:102F7000B3F57A7F04D97B6804225A770123FB7367
:102F80007B681B68DB6803F04003002B02D1FB7BEE
:102F9000012BE8D1FB7B18461037BD4680BD80B5BC
:102FA00084B000AF78600023FB737B681B68DA682D
:102FB0007B681B6822F08002DA607B681B689B6874
:102FC00003F02003002B0AD17868FFF78BFF03463C
:102FD000002B04D07B6804225A770123FB73FB7B10
:102FE00018461037BD4680BD80B582B000AF78600E
:102FF0007B68002B01D1012341E07B6893F83D30D1
:10300000DBB2002B06D17B68002283F83C20786875
:10301000FEF7E4FC7B68022283F83D207B681A6897
:103020007B6804331946104600F0F6FB7B680122EA
:1030300083F846207B68012283F83E207B680122CA
:1030400083F83F207B68012283F840207B680122BF
:1030500083F841207B68012283F842207B680122AB
:1030600083F843207B68012283F844207B68012297
:1030700083F845207B68012283F83D200023184611
:103080000837BD4680BD000080B584B000AF7860D1
:1030900039603B68002B09D17B6893F83E30DBB286
:1030A000012B14BF01230023DBB222E03B68042B79
:1030B00009D17B6893F83F30DBB2012B14BF0123A9
:1030C0000023DBB215E03B68082B09D17B6893F83D
:1030D0004030DBB2012B14BF01230023DBB208E038
:1030E0007B6893F84130DBB2012B14BF012300232E
:1030F000DBB2002B01D0012368E03B68002B04D138
:103100007B68022283F83E2013E03B68042B04D145
:103110007B68022283F83F200BE03B68082B04D138
:103120007B68022283F8402003E07B68022283F858
:1031300041207B681B6801223968184600F084FD35
:103140007B681B68234A934207D17B681B685A6CD3
:103150007B681B6842F400425A647B681B681D4A06
:10316000934218D07B681B68B3F1804F13D07B6803
:103170001B68194A93420ED07B681B68174A93421A
:1031800009D07B681B68164A934204D07B681B6891
:10319000144A934211D17B681B689B6803F00703B4
:1031A000FB60FB68062B10D07B681B681A687B6885
:1031B0001B6842F001021A6007E07B681B681A680E
:1031C0007B681B6842F001021A6000231846103722
:1031D000BD4680BD000001400004004000080040E2
:1031E000000C00400040014080B586B000AF786020
:1031F00039607B68002B01D1012397E07B6893F84D
:103200003D30DBB2002B06D17B68002283F83C20E6
:103210007868FEF793FB7B68022283F83D207B6889
:103220001B689B687A68126823F4804323F00703C5
:1032300093607B681A687B6804331946104600F077
:10324000EBFA7B681B689B687B617B681B689B69EA
:103250003B617B681B681B6AFB603B681B687A6983
:1032600013437B613B6923F4407323F003033B6109
:103270003B689A683B689B691B0213433A69134396
:103280003B613B6923F4406323F00C033B613B69E2
:1032900023F4704323F0F0033B613B68DA683B683A
:1032A000DB691B0213433A6913433B613B681B69AB
:1032B0001A013B681B6A1B0313433A6913433B61C2
:1032C000FB6823F02203FB60FB6823F08803FB60AC
:1032D0003B685A683B685B691B011343FA681343F8
:1032E000FB607B681B687A699A607B681B683A6937
:1032F0009A617B681B68FA681A627B68012283F80E
:1033000046207B68012283F83E207B68012283F8F7
:103310003F207B68012283F842207B68012283F8EA
:1033200043207B68012283F83D200023184618378C
:10333000BD4680BD80B584B000AF786039607B68E1
:1033400093F83E30FB737B6893F83F30BB737B6828
:1033500093F842307B737B6893F843303B733B6850
:10336000002B10D1FB7B012B02D17B7B012B01D0E9
:10337000012369E07B68022283F83E207B680222F9
:1033800083F8422031E03B68042B10D1BB7B012B3A
:1033900002D13B7B012B01D0012355E07B68022247
:1033A00083F83F207B68022283F843201DE0FB7BEB
:1033B000012B08D1BB7B012B05D17B7B012B02D1DB
:1033C0003B7B012B01D001233EE07B68022283F886
:1033D0003E207B68022283F83F207B68022283F82C
:1033E00042207B68022283F843203B68002B03D0F5
:1033F0003B68042B08D00FE07B681B68012200218A
:10340000184600F021FC16E07B681B6801220421AD
:10341000184600F019FC0EE07B681B6801220021B1
:10342000184600F011FC7B681B6801220421184635
:1034300000F00AFC00BF7B681B681A687B681B6889
:1034400042F001021A60002318461037BD4680BDC5
:1034500080B584B000AF78607B681B68DB68FB6078
:103460007B681B681B69BB60BB6803F00203002B11
:1034700020D0FB6803F00203002B1BD07B681B6885
:103480006FF002021A617B6801221A777B681B6861
:103490009B6903F00303002B03D0786800F09EF9CA
:1034A00005E0786800F090F9786800F0A1F97B6891
:1034B00000221A77BB6803F00403002B20D0FB68BE
:1034C00003F00403002B1BD07B681B686FF0040221
:1034D0001A617B6802221A777B681B689B6903F478
:1034E0004073002B03D0786800F078F905E0786825
:1034F00000F06AF9786800F07BF97B6800221A779F
:10350000BB6803F00803002B20D0FB6803F008031E
:10351000002B1BD07B681B686FF008021A617B6868
:1035200004221A777B681B68DB6903F00303002B16
:1035300003D0786800F052F905E0786800F044F9AB
:10354000786800F055F97B6800221A77BB6803F0B1
:103550001003002B20D0FB6803F01003002B1BD0BE
:103560007B681B686FF010021A617B6808221A776B
:103570007B681B68DB6903F44073002B03D0786819
:1035800000F02CF905E0786800F01EF9786800F08A
:103590002FF97B6800221A77BB6803F00103002B28
:1035A0000CD0FB6803F00103002B07D07B681B687D
:1035B0006FF001021A61786800F0FCF8BB6803F054
:1035C0008003002B0CD0FB6803F08003002B07D096
:1035D0007B681B686FF080021A61786800F0D2FB8C
:1035E000BB6803F04003002B0CD0FB6803F04003E2
:1035F000002B07D07B681B686FF040021A61786867
:1036000000F000F9BB6803F02003002B0CD0FB682E
:1036100003F02003002B07D07B681B686FF02002AB
:103620001A61786800F0A4FB00BF1037BD4680BD6A
:1036300080B586B000AFF860B9607A600023FB7592
:10364000FB6893F83C30012B01D10223AEE0FB680C
:10365000012283F83C207B680C2B00F29F8001A2A2
:1036600052F823F0993602089D3702089D37020868
:103670009D370208D93602089D3702089D37020897
:103680009D3702081B3702089D3702089D37020844
:103690009D3702085B370208FB681B68B96818464B
:1036A00000F046F9FB681B689A69FB681B6842F0EA
:1036B00008029A61FB681B689A69FB681B6822F024
:1036C00004029A61FB681B689969BB681A69FB6808
:1036D0001B680A439A6164E0FB681B68B968184676
:1036E00000F08CF9FB681B689A69FB681B6842F460
:1036F00000629A61FB681B689A69FB681B6822F488
:1037000080629A61FB681B689969BB681B691A0231
:10371000FB681B680A439A6143E0FB681B68B96851
:10372000184600F0D7F9FB681B68DA69FB681B686C
:1037300042F00802DA61FB681B68DA69FB681B6803
:1037400022F00402DA61FB681B68D969BB681A6958
:10375000FB681B680A43DA6123E0FB681B68B968F1
:10376000184600F021FAFB681B68DA69FB681B68E1
:1037700042F40062DA61FB681B68DA69FB681B6867
:1037800022F48062DA61FB681B68D969BB681B6937
:103790001A02FB681B680A43DA6102E00123FB7529
:1037A00000BFFB68002283F83C20FB7D18461837D9
:1037B000BD4680BD80B483B000AF786000BF0C37D9
:1037C000BD465DF8047B704780B483B000AF78607D
:1037D00000BF0C37BD465DF8047B704780B483B0F2
:1037E00000AF786000BF0C37BD465DF8047B7047C2
:1037F00080B483B000AF786000BF0C37BD465DF881
:10380000047B704780B483B000AF786000BF0C3792
:10381000BD465DF8047B704780B485B000AF78602A
:1038200039607B681B68FB607B683A4A93420FD023
:103830007B68B3F1804F0BD07B68374A934207D047
:103840007B68364A934203D07B68354A934208D15D
:10385000FB6823F07003FB603B685B68FA68134306
:10386000FB607B682B4A93421BD07B68B3F1804F8F
:1038700017D07B68284A934213D07B68274A93422B
:103880000FD07B68264A93420BD07B68254A93422F
:1038900007D07B68244A934203D07B68234A934233
:1038A00008D1FB6823F44073FB603B68DB68FA686F
:1038B0001343FB60FB6823F080023B685B691343A2
:1038C000FB607B68FA681A603B689A687B68DA621A
:1038D0003B681A687B689A627B680E4A934203D100
:1038E0003B681A697B681A637B6801225A617B68AE
:1038F0001B6903F00103012B05D17B681B6923F0D1
:1039000001027B681A6100BF1437BD465DF8047B75
:10391000704700BF00000140000400400008004064
:10392000000C0040004001400044014000480140BC
:1039300080B487B000AF786039607B681B6A7B61B8
:103940007B681B6A23F001027B681A627B685B68F4
:103950003B617B689B69FB60FB6823F07003FB6045
:10396000FB6823F00303FB603B681B68FA681343A2
:10397000FB607B6923F002037B613B689B687A698B
:1039800013437B617B681C4A93420CD17B6923F013
:1039900008037B613B68DB687A6913437B617B6961
:1039A00023F004037B617B68134A934211D13B6986
:1039B00023F480733B613B6923F400733B613B68F4
:1039C0005B693A6913433B613B689B693A691343FE
:1039D0003B617B683A695A607B68FA689A613B6828
:1039E0005A687B685A637B687A691A6200BF1C3721
:1039F000BD465DF8047B70470000014080B487B08D
:103A000000AF786039607B681B6A7B617B681B6AEA
:103A100023F010027B681A627B685B683B617B68FD
:103A20009B69FB60FB6823F4E043FB60FB6823F4C5
:103A30004073FB603B681B681B02FA681343FB6022
:103A40007B6923F020037B613B689B681B017A69DB
:103A500013437B617B681E4A93420DD17B6923F03F
:103A600080037B613B68DB681B017A6913437B61E0
:103A70007B6923F040037B617B68154A934213D135
:103A80003B6923F480633B613B6923F400633B6142
:103A90003B685B699B003A6913433B613B689B69E8
:103AA0009B003A6913433B617B683A695A607B68C3
:103AB000FA689A613B685A687B689A637B687A699E
:103AC0001A6200BF1C37BD465DF8047B704700BF1B
:103AD0000000014080B487B000AF786039607B6837
:103AE0001B6A7B617B681B6A23F480727B681A62A5
:103AF0007B685B683B617B68DB69FB60FB6823F08C
:103B00007003FB60FB6823F00303FB603B681B68EA
:103B1000FA681343FB607B6923F400737B613B68A5
:103B20009B681B027A6913437B617B681D4A934241
:103B30000DD17B6923F400637B613B68DB681B026A
:103B40007A6913437B617B6923F480637B617B68C3
:103B5000144A934213D13B6923F480533B613B6980
:103B600023F400533B613B685B691B013A691343D3
:103B70003B613B689B691B013A6913433B617B686E
:103B80003A695A607B68FA68DA613B685A687B6810
:103B9000DA637B687A691A6200BF1C37BD465DF83C
:103BA000047B70470000014080B487B000AF7860AC
:103BB00039607B681B6A3B617B681B6A23F4805217
:103BC0007B681A627B685B687B617B68DB69FB6092
:103BD000FB6823F4E043FB60FB6823F44073FB6065
:103BE0003B681B681B02FA681343FB603B6923F4C4
:103BF00000533B613B689B681B033A6913433B617D
:103C00007B68104A934209D17B6923F480437B612E
:103C10003B685B699B017A6913437B617B687A69C6
:103C20005A607B68FA68DA613B685A687B681A6494
:103C30007B683A691A6200BF1C37BD465DF8047B99
:103C4000704700BF0000014080B487B000AFF8604B
:103C5000B9607A60BB6803F01F03012202FA03F324
:103C60007B61FB681A6A7B69DB431A40FB681A6256
:103C7000FB681A6ABB6803F01F03796801FA03F353
:103C80001A43FB681A6200BF1C37BD465DF8047B0F
:103C90007047000080B485B000AF786039607B6801
:103CA00093F83C30012B01D1022350E07B680122C4
:103CB00083F83C207B68022283F83D207B681B68E8
:103CC0005B68FB607B681B689B68BB60FB6823F0DC
:103CD0007003FB603B681B68FA681343FB607B68FA
:103CE0001B68FA685A607B681B681C4A934218D0AC
:103CF0007B681B68B3F1804F13D07B681B68184A40
:103D000093420ED07B681B68164A934209D07B68A9
:103D10001B68154A934204D07B681B68134A934280
:103D20000CD1BB6823F08003BB603B685B68BA685A
:103D30001343BB607B681B68BA689A607B6801228A
:103D400083F83D207B68002283F83C20002318463E
:103D50001437BD465DF8047B704700BF000001408A
:103D60000004004000080040000C004000400140FA
:103D700080B483B000AF786000BF0C37BD465DF8FB
:103D8000047B704780B483B000AF786000BF0C370D
:103D9000BD465DF8047B704780B582B000AF7860A7
:103DA0007B68002B01D1012342E07B6893F841300E
:103DB000DBB2002B06D17B68002283F840207868B4
:103DC000FDF798FE7B68242283F841207B681B68FE
:103DD000DA687B681B6822F40052DA60786800F0C9
:103DE000FFFD7B681B681A697B681B6822F49042A0
:103DF0001A617B681B685A697B681B6822F02A027B
:103E00005A617B681B68DA687B681B6842F4005261
:103E1000DA607B6800225A647B68202283F84120A4
:103E20007B68202283F842207B6800225A630023AB
:103E300018460837BD4680BD80B58AB002AFF8602D
:103E4000B9603B601346FB8000237B61FB6893F8FD
:103E50004130DBB2202B75D1BB68002B02D0FB8830
:103E6000002B01D101236EE0FB6800225A64FB683D
:103E7000212283F84120FDF71DFF7861FB68FA8855
:103E80009A84FB68FA88DA84FB689B68B3F5805FE4
:103E900008D1FB681B69002B04D10023FB61BB68C0
:103EA000BB6103E0BB68FB610023BB612EE03B68A4
:103EB00000937B6900228021F86800F09BFB034699
:103EC000002B05D0FB68202283F8412003233AE031
:103ED000FB69002B0BD1BB691B881A46FB681B686A
:103EE000C2F308025A60BB690233BB6107E0FB6999
:103EF0001A78FB681B685A60FB690133FB61FB6839
:103F0000DB8C9BB2013B9AB2FB68DA84FB68DB8CEA
:103F10009BB2002BCBD13B6800937B6900224021F0
:103F2000F86800F067FB0346002B05D0FB682022F1
:103F300083F84120032306E0FB68202283F8412018
:103F4000002300E0022318462037BD4680BD80B51F
:103F50008AB002AFF860B9603B601346FB80002373
:103F60007B61FB6893F84230DBB2202B40F081800C
:103F7000BB68002B02D0FB88002B01D1012379E024
:103F8000FB6800225A64FB68222283F84220FB6807
:103F900000221A63FDF78EFE7861FB68FA889A8525
:103FA000FB68FA88DA85FB689B68B3F5805F08D107
:103FB000FB681B69002B04D10023FB61BB68BB615C
:103FC00003E0BB68FB610023BB6147E03B680093F3
:103FD0007B6900222021F86800F00CFB0346002BCF
:103FE00005D0FB68202283F84220032342E0FB69CE
:103FF000002B0CD1FB681B685B689BB2C3F3080302
:104000009AB2BB691A80BB690233BB611FE0FB68CF
:104010009B68B3F5805F07D0FB689B68002B0AD1D3
:10402000FB681B69002B06D1FB681B685B68DAB272
:10403000FB691A7008E0FB681B685B68DBB203F081
:104040007F03DAB2FB691A70FB690133FB61FB681D
:10405000DB8D9BB2013B9AB2FB68DA85FB68DB8D96
:104060009BB2002BB2D1FB68202283F842200023B0
:1040700000E0022318462037BD4680BD80B5BAB0A7
:1040800000AF78607B681B681B68C7F8E4307B680A
:104090001B68DB68C7F8E0307B681B685B69C7F8A2
:1040A000DC300023C7F8D8300023C7F8D430D7F865
:1040B000E43003F00F03C7F8D830D7F8D830002B1E
:1040C0000FD1D7F8E43003F02003002B09D0D7F844
:1040D000E03003F02003002B03D0786800F0C2FB2F
:1040E0005BE2D7F8D830002B00F0DE80D7F8DC3068
:1040F00003F00103002B06D1D7F8E03003F49073EE
:10410000002B00F0D180D7F8E43003F00103002B3E
:104110000BD0D7F8E03003F48073002B05D07B6818
:104120005B6C43F001027B685A64D7F8E43003F01B
:104130000403002B0BD0D7F8DC3003F00103002B75
:1041400005D07B685B6C43F002027B685A64D7F849
:10415000E43003F00203002B0BD0D7F8DC3003F07F
:104160000103002B05D07B685B6C43F004027B6885
:104170005A64D7F8E43003F00803002B11D0D7F8C5
:10418000E03003F02003002B05D1D7F8DC3003F03A
:104190000103002B05D07B685B6C43F008027B6851
:1041A0005A647B685B6C002B00F0F281D7F8E43036
:1041B00003F02003002B08D0D7F8E03003F02003F1
:1041C000002B02D0786800F04DFB7B681B685B69B0
:1041D00003F04003402B0CBF01230023DBB2C7F8E0
:1041E000D4307B685B6C03F00803002B03D1D7F855
:1041F000D430002B4FD0786800F055FA7B681B68EC
:104200005B6903F04003402B41D17B681B6814338A
:10421000C7F89C30D7F89C3053E8003FC7F8983077
:10422000D7F8983023F04003C7F8D0307B681B687C
:104230001433D7F8D020C7F8A820C7F8A430D7F88F
:10424000A410D7F8A82041E80023C7F8A030D7F879
:10425000A030002BD9D17B68DB6B002B13D07B689F
:10426000DB6B7E4A1A657B68DB6B1846FDF7AFFE99
:104270000346002B16D07B68DB6B1B6D7A68D26B14
:10428000104698470EE0786800F09EF90AE07868DA
:1042900000F09AF906E0786800F096F97B68002251
:1042A0005A6475E100BF73E17B681B6B012B40F022
:1042B0004F81D7F8E43003F01003002B00F0488161
:1042C000D7F8E03003F01003002B00F04181002309
:1042D000BB607B681B681B68BB607B681B685B6896
:1042E000BB60BB687B681B685B6903F04003402BC5
:1042F00040F0B6807B68DB6B1B685B68A7F8BE305C
:10430000B7F8BE30002B00F045817B689B8DB7F875
:10431000BE209A4280F03E817B68B7F8BE20DA85E5
:104320007B68DB6BDB69B3F5807F00F088807B689E
:104330001B680C33C7F88830D7F8883053E8003F43
:10434000C7F88430D7F8843023F48073C7F8B830C6
:104350007B681B680C33D7F8B820C7F89420C7F8DF
:104360009030D7F89010D7F8942041E80023C7F890
:104370008C30D7F88C30002BD9D17B681B68143374
:104380007B677B6F53E8003F3B673B6F23F0010384
:10439000C7F8B4307B681B681433D7F8B420C7F86B
:1043A0008020FB67F96FD7F8802041E80023BB67C6
:1043B000BB6F002BE1D17B681B6814333B663B6EFF
:1043C00053E8003FFB65FB6D23F04003C7F8B030B6
:1043D0007B681B681433D7F8B020FA66BB66B96EE9
:1043E000FA6E41E800237B667B6E002BE3D17B688D
:1043F000202283F842207B6800221A637B681B68B6
:104400000C33FB64FB6C53E8003FBB64BB6C23F0D4
:104410001003C7F8AC307B681B680C33D7F8AC20AE
:10442000BA657B65796DBA6D41E800233B653B6DEC
:10443000002BE3D17B68DB6B1846FDF758FD7B68EA
:1044400002225A637B689A8D7B68DB8D9BB2D31AFC
:104450009BB21946786800F0C1F89BE06D470208EE
:104460007B689A8D7B68DB8D9BB2D31AA7F8CE3020
:104470007B68DB8D9BB2002B00F08E80B7F8CE30CE
:10448000002B00F089807B681B680C33BB63BB6B1F
:1044900053E8003F7B637B6B23F49073C7F8C8300D
:1044A0007B681B680C33D7F8C8207A643B64396C8E
:1044B0007A6C41E80023FB63FB6B002BE3D17B6844
:1044C0001B6814337B627B6A53E8003F3B623B6AA4
:1044D00023F00103C7F8C4307B681B681433D7F896
:1044E000C4203A63FB62F96A3A6B41E80023BB627D
:1044F000BB6A002BE3D17B68202283F842207B68D3
:1045000000221A637B681B680C333B613B6953E8EC
:10451000003FFB60FB6823F01003C7F8C0307B68E6
:104520001B680C33D7F8C020FA61BB61B969FA691E
:1045300041E800237B617B69002BE3D17B68022289
:104540005A63B7F8CE301946786800F047F823E090
:10455000D7F8E43003F08003002B09D0D7F8E0301F
:1045600003F08003002B03D0786800F013F914E007
:10457000D7F8E43003F04003002B0ED0D7F8E0303A
:1045800003F04003002B08D0786800F053F904E0F2
:1045900000BF02E000BF00E000BFE837BD4680BDBD
:1045A00080B483B000AF786000BF0C37BD465DF8C3
:1045B000047B704780B483B000AF786000BF0C37D5
:1045C000BD465DF8047B704780B483B000AF78606F
:1045D00000BF0C37BD465DF8047B704780B483B0E4
:1045E00000AF78600B467B8000BF0C37BD465DF89E
:1045F000047B704780B586B000AFF860B9603B605F
:104600001346FB713BE03B6AB3F1FF3F37D0FDF748
:1046100051FB02463B68D31A3A6A9A4202D33B6A7C
:10462000002B01D103233AE0FB681B68DB6803F031
:104630000403002B23D0BB68802B20D0BB68402B09
:104640001DD0FB681B681B6803F00803082B16D1FC
:1046500000237B61FB681B681B687B61FB681B6830
:104660005B687B617B69F86800F01DF8FB680822D5
:104670005A64FB68002283F8402001230FE0FB68A6
:104680001B681A68BB681340BA689A420CBF0123C2
:104690000023DBB21A46FB799A42B4D000231846B5
:1046A0001837BD4680BD80B495B000AF78607B6898
:1046B0001B680C337B637B6B53E8003F3B633B6BB6
:1046C00023F49073FB647B681B680C33FA6C3A64C8
:1046D000FB63F96B3A6C41E80023BB63BB6B002BB7
:1046E000E5D17B681B6814333B623B6A53E8003FAB
:1046F000FB61FB6923F00103BB647B681B68143317
:10470000BA6CFA62BB62B96AFA6A41E800237B625A
:104710007B6A002BE5D17B681B6B012B19D17B6871
:104720001B680C33FB60FB6853E8003FBB60BB6851
:1047300023F010037B647B681B680C337A6CBA61CE
:104740007B617969BA6941E800233B613B69002BD1
:10475000E5D17B68202283F842207B6800221A631F
:1047600000BF5437BD465DF8047B704780B584B008
:1047700000AF78607B689B6BFB60FB680022DA858A
:10478000FB680022DA84F868FFF71EFF00BF1037CD
:10479000BD4680BD80B485B000AF78607B6893F87B
:1047A0004130DBB2212B3ED17B689B68B3F5805F43
:1047B00014D17B681B69002B10D17B681B6AFB60DE
:1047C000FB681B881A467B681B68C2F308025A60A4
:1047D0007B681B6A9A1C7B681A6208E07B681B6A0C
:1047E000591C7A6811621A787B681B685A607B686A
:1047F000DB8C9BB2013B9BB27A681946D184002BBB
:104800000FD17B681B68DA687B681B6822F0800226
:10481000DA607B681B68DA687B681B6842F04002DC
:10482000DA60002300E0022318461437BD465DF825
:10483000047B704780B582B000AF78607B681B68EE
:10484000DA687B681B6822F04002DA607B6820220D
:1048500083F841207868FFF7A3FE00231846083745
:10486000BD4680BD80B58CB000AF78607B6893F8A2
:104870004230DBB2222B40F0AE807B689B68B3F500
:10488000805F17D17B681B69002B13D10023FB626B
:104890007B689B6ABB627B681B685B689BB2C3F3E7
:1048A00008039AB2BB6A1A807B689B6A9A1C7B6871
:1048B0009A6226E07B689B6AFB620023BB627B688E
:1048C0009B68B3F5805F07D07B689B68002B0AD19B
:1048D0007B681B69002B06D17B681B685B68DAB2BA
:1048E000FB6A1A7008E07B681B685B68DBB203F048
:1048F0007F03DAB2FB6A1A707B689B6A5A1C7B687A
:104900009A627B68DB8D9BB2013B9BB27A68194649
:10491000D185002B5DD17B681B68DA687B681B68DA
:1049200022F02002DA607B681B68DA687B681B680B
:1049300022F48072DA607B681B685A697B681B68A6
:1049400022F001025A617B68202283F842207B68B2
:1049500000225A637B681B6B012B35D17B680022D8
:104960001A637B681B680C337B617B6953E8003FEB
:104970003B613B6923F010037B627B681B680C334F
:104980007A6A3A62FB61F9693A6A41E80023BB61DD
:10499000BB69002BE5D17B681B681B6803F0100323
:1049A000102B0AD10023FB607B681B681B68FB602F
:1049B0007B681B685B68FB60FB687B689B8D1946A6
:1049C0007868FFF70BFE02E07868FFF7F3FD00233D
:1049D00002E0002300E0022318463037BD4680BDC8
:1049E0002DE9B04FC0B000AFC7F8F400D7F8F430ED
:1049F0001B681B6923F44050D7F8F430D968D7F806
:104A0000F4301A6840EA01031361D7F8F4309A6869
:104A1000D7F8F4301B691A43D7F8F4305B691A43AE
:104A2000D7F8F430DB691343C7F8F830D7F8F4301F
:104A30001B68DB6823F4164121F00C01D7F8F43031
:104A40001A68D7F8F8300B43D360D7F8F4301B68F6
:104A50005B6923F44070D7F8F4309969D7F8F430E3
:104A60001A6840EA01035361D7F8F4301A688F4B93
:104A70009A4205D0D7F8F4301A688D4B9A4204D187
:104A8000FEF7AAF8C7F8FC0003E0FEF791F8C7F8B4
:104A9000FC00D7F8F430DB69B3F5004F40F00C812F
:104AA000D7F8FC300022C7F8E830C7F8EC20D7E987
:104AB0003A4522462B469118B9655B41FB65D7E91B
:104AC0001623214612EB0108294643EB01094FF05A
:104AD00000024FF000034FEAC90343EA58734FEA5C
:104AE000C80290469946234618EB0303C7F8E03006
:104AF0002B4649EB0303C7F8E430D7F8F4305B6882
:104B00000022C7F8D830C7F8DC20D7E936120B46A8
:104B1000DB183B65134642EB03037B65D7E914239F
:104B2000D7E93801FCF7B8F802460B46614BA3FB06
:104B300002235B091C01D7F8FC300022C7F8D030F3
:104B4000C7F8D420D7E9348942464B469118B96456
:104B50005B41FB64D7E91223414612EB010A494647
:104B600043EB010B4FF000024FF000034FEACB0381
:104B700043EA5A734FEACA0292469B4643461AEBEF
:104B80000303C7F8C8304B464BEB0303C7F8CC30E0
:104B9000D7F8F4305B680022C7F8C030C7F8C420EB
:104BA000D7E930120B46DB183B64134642EB030394
:104BB0007B64D7E91023D7E93201FCF76DF8024690
:104BC0000B4611463B4BA3FB01235B09642202FB0E
:104BD00003F3CB1ADB0003F13202364BA3FB0223B3
:104BE0005B095B0003F4F8731C44D7F8FC30002227
:104BF000C7F8B830C7F8BC20D7E92E8942464B46E3
:104C00009118B9635B41FB63D7E90E234146511804
:104C1000396349464B417B634FF000024FF000037C
:104C2000D7E90CAB5946CB00514643EA5173514684
:104C3000CA0010461946034642469B18C7F8B030D2
:104C40004B460A4642EB0303C7F8B430D7F8F430BA
:104C50005B680022C7F8A830C7F8AC20D7E92A1251
:104C60000B46DB18BB62134642EB0303FB62D7E93A
:104C70000A23D7E92C01FCF70FF802460B460D4B2F
:104C8000A3FB02135B09642101FB03F3D31ADB00CE
:104C90003233084AA2FB03235B0903F00702D7F86B
:104CA000F4301B6822449A6006E100BF0010014006
:104CB000001401401F85EB51D7F8FC300022C7F8E3
:104CC000A030C7F8A420D7E9288942464B4691185E
:104CD00039625B417B62D7E9082341465418494653
:104CE00043EB01054FF000024FF00003EB0043EAF5
:104CF0005473E20014461D464346E318C7F8983043
:104D00004B4645EB0303C7F89C30D7F8F4305B689B
:104D10000022C7F89030C7F894204FF000024FF0FF
:104D20000003D7E9244529468B00214643EA9173C5
:104D300021468A00D7E92601FBF7AEFF02460B4663
:104D4000604BA3FB02235B091C01D7F8FC30002257
:104D5000C7F88830C7F88C20D7E9228942464B46ED
:104D60009118B9615B41FB61D7E9062341465118AF
:104D7000396149464B417B614FF000024FF000031F
:104D8000D7E904AB5946CB00514643EA517351462B
:104D9000CA0010461946034642469B18C7F88030A1
:104DA0004B460A4642EB0303C7F88430D7F8F43089
:104DB0005B680022BB67FA674FF000024FF0000308
:104DC000D7E91E8949468B00414643EA9173414623
:104DD0008A00D7E92001FBF75FFF02460B46114628
:104DE000384BA3FB01235B09642202FB03F3CB1ABC
:104DF0001B013233334AA2FB03235B0903F0F003A8
:104E00001C44D7F8FC3000223B677A67D7E91C893D
:104E100042464B469118B9605B41FB60D7E90223DB
:104E200041465118396049464B417B604FF00002C2
:104E30004FF00003D7E900AB5946CB00514643EA97
:104E400051735146CA0010461946034642469B1804
:104E5000BB664B460A4642EB0303FB66D7F8F430C9
:104E60005B6800223B667A664FF000024FF0000359
:104E7000D7E9188949468B00414643EA9173414678
:104E80008A00D7E91A01FBF707FF02460B460D4BD4
:104E9000A3FB02135B09642101FB03F3D31A1B017B
:104EA0003233084AA2FB03235B0903F00F02D7F851
:104EB000F4301B6822449A6000BF07F58077BD4636
:104EC000BDE8B08F1F85EB512DE9FF4755EC104B26
:104ED000002D0E4619462B46BBBF05F100431D466B
:104EE00000232D230B700D9BDDF830A0914623F09D
:104EF0002008BCBF22461446B8F1460F05D0B8F1D1
:104F0000450F00D10136022100E0032103AB0193DC
:104F100002AB009345EC104B5346324601F0ACF81F
:104F2000B8F1470F074602D119F0010F22D0B8F1AE
:104F3000460F07EB060910D13B78302B0AD100222F
:104F4000002320462946FBF7C7FD18B9C6F1010624
:104F5000CAF80060DAF800309944002200232046A5
:104F60002946FBF7B9FD08B1CDF80C903022039B20
:104F70004B4507D3039B0E9ADB1B3846136004B0E6
:104F8000BDE8F087591C03911A70F0E7F7B50346A6
:104F90000029B8BF494203F8022BB4BF2D222B22AF
:104FA000092942702ADD0DF1070217460A269446A8
:104FB00091FBF6F506FB151430340CF8014C0C4649
:104FC000632C02F1FF322946F1DC3031ACF10204EE
:104FD00002F8011C411C2246BA420AD30DF1090213
:104FE000A2EB0C02BC4288BF00221344181A03B083
:104FF000F0BD12F8015B01F8015FEDE730233031BD
:105000008370C170031DF1E72DE9F04F2DED028B88
:105010008DB00C46DDF8608016461F46054600F050
:1050200025FFD0F800A05046FBF72AF900230A9389
:1050300023680593D8F8003094F818B0073323F0AC
:10504000070303F10802C8F80020D3E9008929F01A
:1050500000430793CDF8188008EE100AC4E91289BE
:10506000DDE906019E4B4FF0FF32FBF767FD88BB81
:10507000DDE906019A4B4FF0FF32FBF741FD48BBDB
:105080000022002340464946FBF730FD10B12D2396
:1050900084F84330934A944BBBF1470F94BF90463A
:1050A000984603232361059B23F0040323604FF0FC
:1050B0000009009733460BAA2146284600F0DAF98A
:1050C000013040F090804FF0FF300DB0BDEC028B0E
:1050D000BDE8F08F42464B4640464946FBF72EFD61
:1050E00040B14B46002BBCBF2D2384F843307F4A90
:1050F0007F4BD1E763680BF0DF0206925A1C3FD169
:1051000006236360059B616843F480620023039378
:105110000AABCDE901B309AB49EC108B00932260D7
:105120000DF123032846FFF7CFFE069B0999472B75
:10513000804608D1C81C02DB6368994241DDABF1AF
:1051400002035FFA83FBBBF1650F20D801395A4691
:1051500004F150000991FFF719FF0A9A1318012A68
:105160008146236102DC2268D20701D50133236125
:105170009DF82330002B9CD02D2384F8433098E7F2
:10518000069A472ABED1002BBCD10123B9E7BBF157
:10519000660F18D1002963680BDD216113B92268FD
:1051A000D00702D501330B442361A1654FF00009FC
:1051B000DEE713B92268D20701D50233F4E70123F1
:1051C000F2E74FF0670B0A9B994205DB23682161E8
:1051D000D807EAD54B1CE7E70029D4BFC1F102028A
:1051E00001221344E0E723685A0507D423694246A5
:1051F00031462846B84701302CD164E7BBF1650F32
:1052000040F2E080D4E9120100220023FBF764FCA5
:10521000002834D0374A012331462846B8470130A8
:105220003FF451AFDDE909239A4202DB2368D80736
:1052300010D518EE103A524631462846B84701308C
:105240003FF441AF4FF0000804F11A090A9B013BFB
:10525000434509DC23689B0700F10781E0680B9B4D
:105260009842B8BF184630E701234A4631462846DF
:10527000B84701303FF427AF08F10108E6E7099B82
:10528000002B39DC1B4A012331462846B847013040
:105290003FF419AFDDE90932134302D12368D9077E
:1052A000D8D518EE103A524631462846B847013054
:1052B0003FF409AF4FF0000904F11A0A099B5B4261
:1052C0004B4501DC0A9B92E70123524631462846B2
:1052D000B84701303FF4F7AE09F10109EEE700BF2E
:1052E000FFFFEF7F549F0208589F02085C9F02084F
:1052F000609F0208F0A202080A9AA36D9A42A8BF12
:105300001A46002A914637DC4FF0000B29EAE9796A
:1053100004F11A02A36D0593A3EB09035B4533DC8B
:10532000DDE909239A423BDB2368DA0738D4DDE95B
:105330000932A2EB0309059BD21A9145A8BF9146F9
:10534000B9F1000F35DC4FF0000829EAE97904F1E2
:105350001A0ADDE909239B1AA3EB090343457FF7EA
:1053600079AF0123524631462846B84701303FF411
:10537000AAAE08F10108ECE713463146424628463A
:10538000B8470130C0D19EE6012331462846059238
:10539000B84701303FF497AE059A0BF1010BB9E71E
:1053A00018EE103A524631462846B8470130BED171
:1053B00089E6059A4B46424431462846B8470130B3
:1053C000C1D180E60A9A012A01DCDB073AD5012324
:1053D000424631462846B84701303FF474AE18EED5
:1053E000103A524631462846B84701303FF46BAE7A
:1053F000D4E9120100220023DDF828A0FBF76CFBA2
:10540000D8B90AF1FF3308F1010231462846B847FE
:1054100001300ED157E60123524631462846B8479F
:1054200001303FF450AE08F101080A9B013B4345AF
:10543000F1DC4B4604F15002DAE64FF0000804F1CB
:105440001A0AF2E701234246DFE701234A463146C2
:105450002846B84701303FF436AE08F10108E3684A
:105460000B995B1A4345F0DCF8E64FF0000804F1B5
:105470001909F4E72DE9F047164699468A680B6941
:10548000DDF820809342B8BF1346336091F8432083
:1054900007460C460AB1013333602368990642BFC0
:1054A000336802333360256815F0060506D104F130
:1054B000190AE36832689B1AAB4226DC94F8432051
:1054C000131E226818BF012392062BD404F1430255
:1054D00049463846C04701301ED02368226903F090
:1054E0000603042B02BFE5683368ED1AA3680CBFFE
:1054F00025EAE57500259342C4BF9B1AED180026E6
:105500001A34B5421AD1002008E001235246494618
:105510003846C047013003D14FF0FF30BDE8F08777
:105520000135C6E7E1185A1C302081F843002244B7
:1055300094F8451082F843100233C7E7012322464E
:1055400049463846C0470130E6D00136D9E7000069
:105550002DE9FF470F7E0C9D782F914680460C4623
:105560009A4601F1430207D8622F0AD8002F00F0B3
:10557000D480582F00F0C08004F1420584F84270B6
:105580003AE0A7F16303152BF6D801A151F823F0F7
:10559000E9550208FD5502087955020879550208B7
:1055A0007955020879550208FD5502087955020817
:1055B0007955020879550208795502080157020801
:1055C00029560208BB560208795502087955020887
:1055D000235702087955020829560208795502080E
:1055E00079550208C35602082B681A1D1B682A60E9
:1055F00004F1420584F8423001239FE020682B68C3
:10560000070603F10401296001D51E6803E0460680
:10561000FBD5B3F90060002E03DA2D23764284F81F
:1056200043305A480A2312E02B682068191D29606C
:10563000050601D51E6802E04106FBD51E885348C9
:105640006F2F0CBF08230A23002184F843106568DC
:10565000A560002DA2BF216821F0040121600EB9D0
:10566000002D4BD01546B6FBF3F103FB1167C75D68
:1056700005F8017D3746BB420E46F4D9082B0BD105
:105680002368DE0708D5236961689942DEBF3023AD
:1056900005F8013C05F1FF35521B2261CDF800A051
:1056A0004B4603AA21464046FFF7E4FE01304AD1AB
:1056B0004FF0FF3004B0BDE8F087236843F02003CB
:1056C00023603348782784F84570236829681F06CB
:1056D00051F8046B02D45F0648BFB6B2DF0748BF7B
:1056E00043F02003296048BF23601EB9236823F0DC
:1056F000200323601023A7E72448E4E71546BDE70D
:105700002B6826686169181D286035061B6801D55D
:10571000196002E07006FBD519800023236115464D
:10572000BCE72B681A1D2A601D68626800212846A4
:10573000FAF756FD08B1401B6060636823610023DF
:1057400084F84330AAE723692A4649464046D047B1
:105750000130ADD023689B0713D4E068039B9842C7
:10576000B8BF1846A6E70123324649464046D0470F
:1057700001309DD00135E36803995B1AAB42F2DC3E
:10578000EBE7002504F11906F5E700BF649F020866
:10579000759F02082DE9F04F87B0174603938B6879
:1057A0005A1EB2F5AE7F83BF6FF4AE755B190293DC
:1057B000002386BF40F25D138B6002930B688B461B
:1057C000002543F4F0634BF81C3BCDE904558046BB
:1057D0000C465E46AA46A9460195A26852B13B68AE
:1057E0001B784E2B64D8402B3CD8A3F12B01C8B2B8
:1057F0000E283AD9B9F1000F03D0236823F480733F
:1058000023600AF1FF3ABAF1010F00F213815E45FD
:1058100000F205810125284607B0BDE8F08FA3F10D
:1058200061020D2AE6D801A151F822F06B59020855
:10583000F5570208F5570208F5570208CB59020838
:10584000A3590208F5570208F557020879590208CA
:10585000F5570208F5570208F5570208F5570208F0
:1058600031590208A3F14102DBE70E29C2D801A099
:1058700050F821F023590208F5570208235902086D
:10588000B7590208F5570208D15802080D59020805
:105890000D5902080D5902080D5902080D59020848
:1058A0000D5902080D5902080D5902080D59020838
:1058B0006E2B09D8602BB2D8542B77D0592B99D1A5
:1058C000072D97D1082529E0742B6FD0792BF6E7A7
:1058D0002168C8051AD5029B21F08001216009F1D9
:1058E00001091BB1013B01320293A260A368013B95
:1058F000A3602369013323617B68013B002B7B603C
:1059000040F384803B6801333B6066E71AEB050F88
:105910007FF470AF226822F4C072226006F8013B67
:10592000E4E7226810067FF565AF22F08002F4E715
:10593000BAF1000F0ED1B9F1000F0ED1226802F4B6
:10594000E061B1F5E06F08D122F4F06222604FF01F
:10595000010AE3E7BAF1020F55D0012D02D0042D60
:105960007FF448AF0135EDB2D8E7BAF1010F7FF40B
:1059700041AF4FF0020AD1E77DB9B9F1000F7FF4D2
:105980003CAF226802F4E061B1F5E06F7FF439AF1B
:1059900022F4F06222600125C0E7032DE2D0052D3C
:1059A000DEE7022D7FF426AF0325B7E7062D7FF44F
:1059B00021AF0725B2E7226891057FF51BAF22F4DE
:1059C00020722260CDF80490A8E7226802F4A0615A
:1059D000B1F5806F06D050057FF50CAFB9F1000F1F
:1059E0003FF40FAF910558BF019922F4F06258BF00
:1059F000A9EB010142F4C07258BFCDE90416226040
:105A00004FF000098AE74FF0030A87E7D4F88031A6
:105A100039464046984700283FF4DFAEEAE6D4F81E
:105A20007C3116F8011D3A46404698472369013BF0
:105A30002361ECE66B1E062B25D8022D36D85E4579
:105A40007FF6E8AED4F87C3116F8011D3A464046A0
:105A500098472369013B2361F1E70298D4F87C3130
:105A600010F8011D02903A46404698472369013BD1
:105A700023610AF1FF3A5FFA8AFABAF1020FECD118
:105A8000033DEDB2761B2368DA052FD55B0510D5F3
:105A90005E457FF6BFAED4F87C3116F8011D3A465C
:105AA000404698472369013B2361F1E7AA460296E5
:105AB000DFE716F8011C2369652903F1FF3306F1BE
:105AC000FF3523610CD045290AD0D4F87C313A4601
:105AD00040469847236916F8021C013BB51E236116
